:020000040800F2
:100000000007012065090008890800088B0800081E
:100010008D0800088F080008910800080000000003
:10002000000000000000000000000000930800082D
:1000300095080008000000004382010819AB000881
:100040007F0900087F0900087F0900087F09000870
:100050007F0900087F0900087F0900087F09000860
:100060007F0900087F0900087F0900087F09000850
:100070007F0900087F0900087F0900087F09000840
:100080007F0900087F0900087F0900087F09000830
:100090007F0900087F0900087F0900087F09000820
:1000A0007F0900087F0900087F0900087F09000810
:1000B0007F0900087F0900087F0900087F09000800
:1000C0007F0900087F0900087F0900087F090008F0
:1000D0007F09000869AF000895AF0008C9AF0008A4
:1000E0007F0900087F0900087F0900087F090008D0
:1000F0007F0900087F0900087F0900087F090008C0
:100100007F0900087F0900087F0900087F090008AF
:100110007F0900087F0900087F0900087F0900089F
:100120007F0900087F0900087F0900087F0900088F
:100130007F0900087F0900087F0900087F0900087F
:100140007F0900087F0900087F0900087F0900086F
:100150007F0900087F0900087F0900087F0900085F
:100160007F0900087F0900087F0900087F0900084F
:100170007F0900087F0900087F0900087F0900083F
:100180007F0900087F09000800F002F800F072F80B
:100190000AA090E8000C82448344AAF10107DA45E2
:1001A00001D100F067F8AFF2090EBAE80F0013F0C2
:1001B000010F18BFFB1A43F00103184758CB030087
:1001C00078CB03000A444FF0000C10F8013B13F009
:1001D000070408BF10F8014B1D1108BF10F8015BA0
:1001E000641E05D010F8016B641E01F8016BF9D193
:1001F00013F0080F1EBF10F8014BAD1C0C1B09D1EA
:100200006D1E58BF01F801CBFAD505E014F8016B5B
:1002100001F8016B6D1EF9D59142D6D370470000ED
:100220000023002400250026103A28BF78C1FBD8FF
:10023000520728BF30C148BF0B60704766292FF0B6
:100240006387642916F0F884782916F031857329BC
:1002500017F0AD82002070471FB52FF050FF17F048
:100260001DFB0400002000212FF09CFAE0601FBD60
:1002700010B510BD17F0D4FB1146FFF7EDFF00F0ED
:10028000C6F917F0F2FB03B4FFF7F2FF03BC0AF064
:1002900001FD000030BF72B6704762B6704780F350
:1002A000088870470EB5DFF8288402AE08270121C0
:1002B0004446404605F05FF8012839D10023CDE9D6
:1002C000007602221946184614F0DFFE012120466E
:1002D00005F051F801282BD14FF6FF7528460BF099
:1002E0004EFC02A811F02BFDFAA01024CDE900402D
:1002F0001E23FA2232210A200EF01AF8FDA3102242
:1003000046210A2000F0FEFB28460BF038FCFA4993
:100310004FF478401E230860F8A0CDE900404FF468
:100320008C7232210A200EF003F802A811F040FD71
:100330000022CDE900760A231146104614F0A5FEEE
:10034000B5E70EB5F64C02AD08264FF4FA77D4F8AF
:10035000A40258B10020C4F8A4020022CDE900652F
:100360003B461146104614F090FEF0E70120F2E7FC
:100370000EB502AD08241CF0A7FD0022142311467F
:100380001046CDE9004514F080FEF4E72DED088B12
:100390009FEDE48AE44818F07DF9E44818F050FA3B
:1003A000E34818F00FFBE34819F0B2FAE2481EF0F8
:1003B0006DF8E2481FF0F6F9E14820F03BF8E1481B
:1003C00020F05CF9E04820F035FBE04820F06EFEBC
:1003D000DF4820F05DFFDF4821F0CEF916F020FB6A
:1003E000DFF87483DD4EB3EE0E9ADFEDDD8AF0EEBA
:1003F000009A9FEDDCAADFEDDCAADC4CDC4DDFF8D7
:100400007493002714201AF065FF287800067CD525
:1004100098F8030041467F2802D30A79FF2A29D0A1
:10042000020900071203000D00EE102A00EE900AE8
:1004300098F80400B8EE400AF8EE600A01090901D4
:1004400000F00F0030EE800A00EE901AF8EE600A1D
:1004500030EE800A00EE900AF8EE600A30EE800A74
:1004600010EE100AB0F18E4F307815DC40B1012843
:100470000BD01BE0C049206818F056FDBFA148E032
:10048000C0EE280A30EE890A10E060EE290A80EEFC
:10049000A80A30EE0A0A09E010B1012813D005E0DD
:1004A00070EE6A0A80EEA80A30EE090AB749B6482B
:1004B000097800EB8100D0ED000AB54860EE800AB3
:1004C000007818B104E030EE6A0ADEE7B0EE608A28
:1004D00010EE100A30EEC8BA2FF0A0FD41EC100B60
:1004E000ACA153EC102BAD4816F068FB1BEE100AC4
:1004F0002FF094FD41EC100BA6A153EC102BA84853
:1005000016F05CFBA749206800E006E018F00CFD3F
:10051000A349206818F056FD2F7099F800100906BD
:100520007FF570AF89F800706CE72DE9F0438BB070
:1005300010F0F1F809A813F046FC9B48002401686C
:1005400041F480510160006800F4805000901BF07D
:10055000E1FC10F0B5F90326CDE90646814609AD68
:100560004FF40060CC210895CDE902108F4A062097
:100570000594CDE9000204940023AFF2EF128B48FA
:100580008BA1B83813F06DFECDE9064680278C4963
:1005900004204FF00C08089505940023AFF22F2299
:1005A0008DE803018648CDE9037486A1B83813F0BD
:1005B00058FECDE906468649052008950594002396
:1005C000AFF281228DE803018148CDE9037481A156
:1005D000B83813F046FECDE9064681490720089554
:1005E00005940023AFF243328DE803017C48CDE946
:1005F00003747CA1B83813F034FE09A97D4814F0C7
:10060000FBFA484610F060F90BB0BDE8F0838AB001
:1006100004F084FB0723022208214FF4A8700AF09B
:10062000EFFAA8200AF088FA4FF4E1300AF03CFB18
:100630000AF010FD0AF036FD0BF0B8FA0FF0ADFD30
:100640000AF0C2FD00200FF057FF01200FF054FF09
:1006500000F006FC684C012226A1206802F0DDFAB9
:10066000012266A1606802F0D8FA00F095FB00282C
:100670002DD0102562A0CDE900502B46C82246217E
:100680001E200DF055FE4FF6FF7415E05FA0CDE97A
:1006900000501023C8225A211E200DF049FEC82008
:1006A0000AF088FA5623E6225A211E2000940DF003
:1006B00042FCC8200AF07EFA0FF0FEFB0028E5D1CC
:1006C0000CA310225A211E2000F01CFAA6E0ACE078
:1006D00000000240466F6E74205570646174616959
:1006E0006E672C506C6561736520576169742E2E9E
:1006F0002E000000303A0000C0010020466F6E74EA
:10070000205570646174612066696E736865642C3D
:10071000506C656173652052657374617274210059
:1007200000804242000000005D8401084587010806
:1007300019890108919401084DE4010839F3010871
:1007400031FF0108F905020875090208110F0208B6
:1007500065110208B1160208B00100202103002033
:1007600000007A440000484200FF7F472403002035
:10077000A8010020A9010020D86C0308B2E2C1BF83
:10078000B3ACB3CCA3A100000000002023030020E1
:1007900022030020252E326600000000D0F9002040
:1007A000DAF9002000A5030830380240382500207F
:1007B000456D776D696E64656D6F5F7461736B0015
:1007C000C81F0020746F7563685F7461736B0000ED
:1007D000802200206C6564305F7461736B000000E0
:1007E000F0450020466F6E7475706461746120740A
:1007F00061736B00580E00207C010020313A00002C
:10080000466F6E74204572726F722100534420430C
:10081000617264204661696C656421004FF4FA607E
:100820000AF0C8F920460BF0AAF90FF09BFA09A8C4
:1008300011F091F910F044F800210446032209A8B0
:1008400005910691CDE907204FF4806066230A4D9B
:10085000CDE90230CDE9002504910B46AFF23532E7
:1008600006A1A5F1B80013F0FCFC204610F02CF80E
:1008700009A811F0CBFAFEE7100F00207374617223
:10088000745F7461736B00007047FEE7FEE7FEE77C
:10089000FEE77047704700002A48016841F4700184
:1008A00001602948016841F001010160264A0021E8
:1008B000083211600268254B1A400260031D244A69
:1008C0001A60026822F4802202601F480C30016026
:1008D0001C49580680390860704770B51A4D0835B4
:1008E00028681C4B1C4910F00C0004D05E10042832
:1008F00003D0082803D00B601BE00E6019E0124AF9
:10090000121D1068C0F38054106800F03F0014B14D
:10091000B6FBF0F001E0B3FBF0F013681268C3F32C
:1009200088135843C2F30142521C5200B0FBF2F04C
:1009300008602868094AC0F30310105C0A68C240C6
:100940000A6070BD88ED00E000380240FFFFF6FE4F
:10095000103000240024F4006C0100200C01030876
:10096000704770470948804709480047FEE7FEE79F
:10097000FEE7FEE7FEE7FEE7FEE7FEE7FEE7FEE74F
:1009800004480549054A064B7047000099080008CD
:100990008901000800FD00200007012000FF002061
:1009A00000FF002070B514462DED028B82B00E467C
:1009B0009DED080A0546F8EE400A00EE103AB8EE42
:1009C000401A80EE810ADFEDFE0A20EE208A9FEDBC
:1009D000FD0AB4EE480AF1EE10FA1AD0FAA0CDE9F9
:1009E000004004EB440005EB500080B24FF4A073CC
:1009F000F0220DF09DFCBCEEC80A10EE100AC2B247
:100A0000642A00D9642203233146284600940DF05D
:100A100005FC02B00020BDEC028B70BD2DE9FF4F3C
:100A2000002683B01F463446B0464FF4147130465A
:100A3000DDF840B00FF006FE050001D14FF00108CF
:100A40004FF4805A514600200FF0FCFD5FEA000988
:100A500001D14FF0010801223946284602F010F971
:100A6000070025D1B8F1000F22D1D8495FEA0B0069
:100A700007D001280BD002280CD0BBF1030F13D1F3
:100A80000BE0D34E41F8016F286948600CE051F843
:100A9000010F04E051F8090F01E051F8110F4A6805
:100AA00086188E602869C86077B1284602F070FC0D
:100AB000294600200FF0BDFD494600200FF0B9FD8A
:100AC000384607B0BDE8F08FD04601AB42464946F4
:100AD000284602F010FA0700E7D1A119424648461D
:100AE0000FF072FCBDF804000DF10C0A04440094F0
:100AF0009AE807002B69FFF755FFBDF80400404551
:100B0000E3D0D2E72DE9FF4FDFF8C0B283B0FF2179
:100B100000258BF800101746642128460FF092FD3F
:100B200002904FF4805100200FF08CFD80464FF46E
:100B3000147100200FF086FD0446B8F1000F4BD071
:100B40000298002848D0ECB3069916F0CDF9A14ED2
:100B50000298F16816F00BFA01222046029902F081
:100B60008FF800B110250699029816F0BDF9B1680A
:100B7000029816F0FCF901222046029902F080F852
:100B800008B145F020050699029816F0ADF9716894
:100B9000029816F0ECF901222046029902F070F852
:100BA00008B145F040050699029816F09DF9B24645
:100BB0003168029816F0DBF901222046029902F012
:100BC0005FF800E008E008B145F08005214600200C
:100BD0000FF02FFD75B1D5E0214600200FF029FD63
:100BE000002002990FF025FD414600200FF021FD65
:100BF000052066E778A0CDE90070DDE903014FF438
:100C0000A073F0220DF094FB002407EB87000399FA
:100C1000800040F2173901EB5006B0B24B463A461D
:100C200000940499FFF7BEFE21034FF48052404622
:100C300001F540010FF01CFB00204FF4806258F8D2
:100C40002010491C03D1401C80B29042F7D390423F
:100C500003D004F540600FF090FB641CA4B24C4537
:100C6000DBD3414600200FF0E4FC60A0CDE900702A
:100C7000DDE903014FF4A0794B46F0220DF058FB5B
:100C80000699029816F030F95446DAF80C100298DA
:100C900016F06DF900200090B0B23A46029B04991C
:100CA000FFF7BCFE28B1002002990FF0C2FC012022
:100CB00007E753A0CDE90070DDE903014B46F022C0
:100CC0000DF036FB0699029816F00EF9A16802980D
:100CD00016F04DF901200090B0B23A46029B0499FB
:100CE000FFF79CFE28B1002002990FF0A2FC022021
:100CF000E7E649A0CDE90070DDE903014B46F022AB
:100D00000DF016FB0699029816F0EEF8616802984D
:100D100016F02DF902200090B0B23A46029B0499D9
:100D2000FFF77CFE28B1002002990FF082FC03201F
:100D3000C7E63FA0CDE90070DDE903014B46F02294
:100D40000DF0F6FA0699029816F0CEF8216802988E
:100D500016F00DF903200090B0B23A46029B0499B8
:100D6000FFF75CFE28B1002002990FF062FC04201E
:100D7000A7E6AA218BF8001021224FF44001134866
:100D80000FF022FB002002990FF053FC4146002097
:100D90000FF04FFC284694E670B500240FF0FDF9E3
:100DA0000A4D4FF44006641CE4B221223146074844
:100DB0000FF05EFA2878AA284FD0142044E00000F3
:100DC0000000C84200007F4325000000F0470020DB
:100DD0002100C0002401030845726173696E672019
:100DE000736563746F72732E2E2E200055706461CC
:100DF00074696E6720554E4947424B2E42494E005A
:100E00005570646174696E672047424B31322E42DF
:100E1000494E2020000000005570646174696E67BF
:100E20002047424B31362E42494E20200000000020
:100E30005570646174696E672047424B32342E42AC
:100E4000494E20200000000009F0B4FE0A2CAAD36D
:100E50002878AA2801D0012070BD002070BD0000B4
:100E600070B5F94D00244FF40D76314600200FF097
:100E7000E9FB45F8240018B1641CE4B2022CF4D359
:100E80004FF41476314600200FF0DCFBEE4D314676
:100E90000C3D286000200FF0D5FB68604FF4007116
:100EA00000200FF0CFFBA860022C06D1296821B1E9
:100EB000696811B108B1002070BD012070BD4128E2
:100EC00003D3612801D32038C0B270472DE9FC411B
:100ED00000210A46521C0378D2B213B1401CFA2AF0
:100EE000F8D3FA2A2AD0002210F8013D2E2B28D060
:100EF000521CD2B2052AF7D3684615F0F5FF00213F
:100F00006A46505CFFF7DBFF5054491CC9B2042904
:100F1000F7D3CE4F0025002407EB051656F8240022
:100F2000017839B1694616F017F960B1641CE4B272
:100F3000042CF3D36D1CEDB2072DECD3FF20BDE8DC
:100F4000FC81411CD8E744EA0510C0B2F7E77CB544
:100F50000D4600211446009101AA694602F066FC84
:100F600000280AD101998A694B89921E00995A4337
:100F70004B4351082960590821607CBD2DE9FF4F82
:100F800087B04FF0000BDDE9146982464FF414740A
:100F900098465D46ADF814B0ADF810B05F462146F6
:100FA00058460FF04FFB0190214600200FF04AFBFE
:100FB00003904FF4005100200FF044FB0090019883
:100FC00080B1039870B1009860B1B9F1000F0BD0F7
:100FD0000820814601220899019801F051FE040081
:100FE00004D06AE0642468E00420F2E749F00202D9
:100FF0000999039801F044FE04005ED1B8F1000F96
:1010000012D06421A6FB010305FB0131002206FB7F
:1010100002114246002315F04EFDC7B202223946A6
:1010200053460898984739E0019800263546D0F88D
:101030001080F3E7BDF8142042B304AB0099039885
:1010400002F014F8BDF81010044676186420A6FBD0
:101050000013D94645EB090505FB0030002206FBCD
:10106000020C084642460023614615F024FD034663
:1010700087EA030089EA0102104308D0DFB20222A6
:10108000394653460898984708B1FF240FE074B9D1
:10109000BDF81000BDF81410884208D3DDE9001037
:1010A00005AB4FF4005201F026FF0400C2D00198B6
:1010B00002F06EF9039802F06BF9002001990FF02D
:1010C000B8FA002003990FF0B4FA002000990FF04D
:1010D000B0FA0BB02046BDE8F08F002102E0491CB9
:1010E00089B2401C0278002AF9D1042901D20020DB
:1010F000704710F8011D5C2901D02F29F9D1401C3F
:1011000070472DE9F04706460025482128460FF094
:1011100099FA81464FF4907100200FF093FA04463B
:10112000B9F1000F15D0A4B140F2012100200FF059
:1011300089FA07000FD0A84687F800803146384664
:1011400015F015FF3146484602F090FA060021D00E
:1011500028E064262AE0652628E0A07E10B32E2829
:101160001AD0207BC00612D5384615F0E1FE86B2B3
:1011700037A1384615F0FBFE5146384615F0F7FE0C
:101180003846FFF7BEFF054407F8068004E02068F4
:10119000451901E004F11A0A2146484602F0DAFA3C
:1011A0000600DAD0394600200FF043FA4946002005
:1011B0000FF03FFA214600200FF03BFA16B1002055
:1011C000BDE8F0872846FBE72DE9FF4F85B08B4649
:1011D000824648210020DDF848800FF033FA029063
:1011E000482100200FF02EFA03904FF49071002058
:1011F0000FF028FA0546029828B3039818B315B3E0
:1012000040F20124214600200FF01CFA0646214638
:1012100000200FF017FA0746F6B1EFB14FF00009C2
:1012200086F8009087F800905946384615F09FFEE2
:101230003046079915F09BFE5946029802F016FABF
:1012400004000BD08AE005E07C0100203401030893
:101250002F00000064248AE0652488E0AFF21001CA
:10126000304615F084FE5846FFF737FF04000FD0D4
:101270000146304615F07BFE0422002120465346ED
:101280009847304602F041FC044608280BD063E042
:10129000304615F04DFE80B29BF8001031543044BA
:1012A00080F80190E8E72946029802F053FA04001A
:1012B00054D1A87EF0B32E28F5D005F11A0430469B
:1012C00015F036FE80B20490384615F031FE1FFA54
:1012D00080FBAFF28401384615F049FE287BC0063A
:1012E0000ED52146384615F042FE13983246CDE918
:1012F000008039465046089BFFF766FF044626E00B
:10130000AFF2B401304615F032FE2146304615F0FA
:101310002EFE2146384615F02AFE012200212046E5
:10132000534698471399D8F80000CDE90001089872
:10133000324600E012E0036839465046FFF71EFED1
:101340000446D8F8001028680818C8F8000007F804
:101350000B90049906F80190002CA4D031464FF070
:1013600000000FF066F9394600200FF062F9002006
:1013700002990FF05EF9002003990FF05AF92946FF
:1013800000200FF056F9204609B0A4E62DE9F84FE9
:1013900081464FF00008802829D31E4AD2F8050064
:1013A000400801B180464FF0FF31002601EB900765
:1013B00010259246B81B06EB5004DAF8011008EB32
:1013C00084000144042268460EF052FFBDF800106C
:1013D000494509D001D2264600E02746A5F101057E
:1013E0002D042D0CE6D104E01DB1BDF80200BDE8CE
:1013F000F88F0020FBE70021074B00E0491C33F881
:101400001120002A04D08242F8D1044830F811009B
:1014100070470000F0470020A4010308840303087C
:101420000020704710B510B1012803D104E00EF080
:1014300043FD18B1012010BD0EF0AFFE002010BD1D
:101440002DE9F0411C0015460E4605D030B10128AB
:1014500010D00120BDE8F0810420FBE71A4602E02D
:101460000EF02AFD2246294630460EF0A5FD002842
:10147000F6D10CE04FF4007769023A4630460EF0A0
:10148000F7FE641E05F1010506F50076F4D1002093
:10149000E0E72DE9F0411C0015460E4604D028B1C6
:1014A00001280FD00120D5E70420D3E71A4602E037
:1014B0000EF002FD2246294630460EF098FD002827
:1014C000F6D10CE04FF4007769023A4630460EF050
:1014D0007BFF641E05F1010506F50076F4D10020BE
:1014E000B8E74FF4007318B1012814D001207047F9
:1014F00039B1164801290AD0022904D0032908D19C
:1015000003E0002070471360FBE7808B0CE08069EC
:1015100010E0042070470029F3D0012908D00229E7
:1015200004D00329F5D108201080EAE71380E8E70A
:10153000074800881060E4E700207047014600205B
:101540000FF080B8014600200FF073B80C4B00205C
:101550008401002010B5C17982790B0E42EA012185
:101560001A02437942EA116243EA01211302027925
:1015700043EA116342EA01211A02C37842EA116286
:1015800043EA0121130243EA116382781B0242EA13
:10159000012143EA11630A02417800780A431902E3
:1015A00041EA126140EA022010BD10B5110A027032
:1015B00041EA036141701A0A090A41EA0261817035
:1015C000120A090A41EA0261C170120A090A41EAD3
:1015D00002610171120A090A41EA02614171120AAB
:1015E000090A41EA0261120A8171090A41EA0261AB
:1015F000C17110BD2DE9F0410446C0780027F8B153
:10160000266B04F134016078012332468846FFF7E7
:1016100040FF08B1012713E00020E070606AE16933
:10162000301A88420CD2A57808E0E069012306440C
:10163000607832464146FFF72CFF6D1E022DF4D232
:101640003846BDE8F08170B50446006B0E460025B3
:10165000B0420FD02046FFF7CDFF05000AD16078D9
:101660000123324604F13401FFF7EAFE08B16E1E91
:1016700001252663284670BD70B50446FFF7BAFF02
:10168000050036D1207803282CD12079012829D1D2
:10169000420204F134000021064603F043F94AF601
:1016A000552104F2322003F028F9FB49304603F0BB
:1016B00028F9FA4904F5067003F023F904F50770D8
:1016C000616903F01EF904F50870216903F019F946
:1016D000226A0123521C226360783146FFF7D9FE4B
:1016E00000202071002260781146FFF7FAFE00B159
:1016F0000125284670BD2DE9F04104680D460229F8
:1017000072D3A169A9426FD921784FF0FF36012920
:1017100009D002292CD0F20D02EA8507032936D020
:10172000042977D141E0606A05EB550700EB5721AA
:101730002046FFF788FF00286DD1C7F3080020443A
:101740007F1C90F83480606A00EB57212046FFF739
:101750007AFF48BBC7F30800204490F8341048EAE9
:101760000120E90701D0060955E0C0F30B0652E05D
:10177000606A00EB15212046FFF765FFA0B9E8B2CB
:1017800004EB4000343003F0A8F8064643E0606AFA
:1017900000EBD5112046FFF756FF28B93819343031
:1017A00003F0A0F820F0704635E0D0E9041351EAC8
:1017B00003022FD08268AA1A491E43F1FF33490A57
:1017C00041EAC3516389B1FBF3F3C17902290CD01B
:1017D000032913D002291DD0606A00EBD5112046E1
:1017E000FFF731FFB8B90EE014E09A4212D802D1E7
:1017F0006FF000460FE005F101060CE080699042B1
:10180000EAD96E1C07E03819343003F06BF820F089
:10181000004600E00126304613E72DE9F047022696
:1018200017460D46044602296FD3A069A8426CD919
:1018300020784FF00109012806D0022838D003286B
:1018400046D0042861D143E0616A05EB550801EBFD
:1018500058212046FFF7F7FE060056D1C8F30800CE
:101860002044343008F10108E90704D00178FAB2C5
:1018700062F31F1100E03946017084F80390616A39
:10188000204601EB5821FFF7DEFE06003DD1C8F3EC
:10189000080020443430E90702D0C7F3071105E0FF
:1018A0000178C7F3032201F0F001114301702AE02F
:1018B000606A00EB15212046FFF7C5FE060024D123
:1018C000E8B204EB4000B9B2343003F016F81AE085
:1018D000606A00EBD5112046FFF7B5FE060014D173
:1018E00040F2FF1000EA85002178051934350429FB
:1018F00005D0284602F0F6FF67F31B00074628468E
:10190000394602F0FEFF84F803903046BDE8F087C8
:101910002DE9F0470746C06A891E00EB1136C1F376
:10192000C80501F007014FF0010A0AFA01F09846D4
:101930009146C4B23146761C3846FFF784FE08B1A2
:101940000120E3E752464FF40073791991F834000F
:1019500010EA040C01D04FF0010CC44501D1022063
:10196000D4E7604081F83400B9F10100FA70814693
:10197000CCD0600010F0FF04E7D101246D1C9D4223
:10198000E3D3D7E770B50646C07903280FD1B56910
:10199000B46808E0621C21463068FFF73EFF00286B
:1019A00006D1641C6D1E002DF4D10020F0710020C2
:1019B00070BD2DE9F04789460468924680460F467F
:1019C0004E46022936D3A069B84233D9BAF1000F86
:1019D0000ED02078042803D198F80700022807D0F9
:1019E0004FF0FF3251462046FFF717FF00288DD1F8
:1019F00039464046FFF77FFE050032D0012D19D051
:101A0000681C19D02078042806D0002239462046C8
:101A1000FFF703FF00280ED16069411C05D0401C70
:101A20006061207940F001002071701CA84205D14E
:101A30002E4612E0022069E7012067E7207804289B
:101A400009D1A6EB0902002349462046521CFFF7A4
:101A50005FFF0028EFD12E46B146A0692F46B8425D
:101A6000C6D82078042815D1BAF1000F04D098F810
:101A70000700032802D00DE0002109E0D8F8080093
:101A8000504507D8D8F818100144514502D3022117
:101A900088F80710002039E75252614172724161A3
:101AA0002DE9F04705685FEA0108074625D0414661
:101AB0003846FFF720FE022840D3411C1CD0A969FC
:101AC000814219D8464628784FF0FF3904281BD0A8
:101AD0003446A869641CA04202D80224022E0AD30C
:101AE00021463846FFF707FE38B3012804D0411CD1
:101AF00002D0B442EDD1002008E72E6916B1A869E2
:101B0000B042E0D80126DEE701223146284602F045
:101B10002FFF040039D0601C37D001231A4621461C
:101B20002846FFF7F5FE022808D0012808D0B8F1B2
:101B3000000F07D0F879022806D00DE00120E5E675
:101B40004846E3E6022006E0701C844204D0B868F0
:101B5000301AB8610320F8712878042802D1F87986
:101B6000022814D04E464A4621462846FFF755FE25
:101B700040B9B8F100000AD0014622462846FFF7D6
:101B80004CFE20B101280FD001242046BEE62C6176
:101B9000D5E90501891E884201D2401E6861287975
:101BA00040F001002871F0E73446EEE770B51546C5
:101BB0000168846C680A4A8940EAC350590A0023C4
:101BC000241D14F078FF02CC21B1884204D3401ABE
:101BD000241DF8E7002070BD2168084470BD2DE980
:101BE000F041076806460D463878042806D04FF4C1
:101BF0000010A8423BD9E80639D102E04FF08050EE
:101C0000F7E7B562B46834B93878032807D3002001
:101C1000BC6AF0711CB178894FEA402812E038891B
:101C2000B0EB551F23D9B86A12E03046FFF763FDC9
:101C30000446401C19D0022C19D3B869A04216D909
:101C4000A5EB080545452146EFD2384602F084FE53
:101C5000C6E90B4058B100EB55203063C5F30800CE
:101C60003844343070630020EBE40120E9E40220C2
:101C7000E7E42DE9F04705460468806A894600F1EB
:101C80002008286B30B12178042905D04FF40011C9
:101C9000414504D8042039E64FF08051F8E75FEA67
:101CA000C8515ED1401C2863E96A002729B16089C8
:101CB000401E10EA582F05D053E02189B1EB581F80
:101CC00021D94EE02846FFF716FD064601281ED909
:101CD000701C34D0A069B0423DD8B9F1000F12D0C9
:101CE0002846E96AFFF7DCFE06000ED0012E0ED072
:101CF000701C24D0E87940F00400E8712046FFF71A
:101D000079FCE0B905E02F63C4E70720FEE5022077
:101D1000FCE54FF40072002104F1340002F002FEF1
:101D200000273146204602F017FE4FF001092063DC
:101D30000BE084F803902046FFF75CFC08B101201B
:101D4000E4E5206B401C7F1C20636089B842F0D81A
:101D5000206BC01B206331462046EE6202F0FCFD82
:101D60002863C8F3080020443430C5F8288068632D
:101D70000020CBE52DE9F0410F460446002106681E
:101D8000FFF72DFFE8B900253046216BFFF75BFC1C
:101D9000B8B931780429616B097803D0E52905D0F9
:101DA00021B107E041F3C011491C03D06D1CBD42B5
:101DB0000AD000E0002501212046FFF75AFF002845
:101DC000E2D0042800D107203BE430B50346407838
:101DD0004FF4004544010020014620340AE0022966
:101DE0000BD0C20700D02A4602EB50005A5C1044C8
:101DF00080B2491CA142F2D330BD0321F9E770B58E
:101E0000054600244FF4004611E0FFF7F4FAE1071D
:101E100000D0314601EB5401C2B2114489B2CA0765
:101E200000D0324602EB510101EB102084B235F8AC
:101E3000020B0028E9D1204670BD2DE9F04104468F
:101E40000068216BC668FFF7FEFB002822D1616B9A
:101E50000878852841D12022304602F05AFD777853
:101E6000002120467F1CFFF704FF002812D1216BC0
:101E70002068FFF7E8FB00280CD1616B0878C028C8
:101E80002BD1202206F1200002F043FDF81E11287C
:101E900001D30420C0E440257F0100212046FFF744
:101EA000E8FE0028F6D1216B2068FFF7CCFB002864
:101EB000F0D1616B0878C1280FD17019202202F08F
:101EC00028FD2035BD42E8D33046FFF77EFF0446AB
:101ED000B01C02F002FD844201D002209CE40020EC
:101EE0009AE410B5044608682060C869A06091F8BB
:101EF0002000E071086A002220F0FF00C4E904021B
:101F0000496A2046E163FFF76AFE002803D12046B4
:101F1000BDE8104091E710BD2DE9F041044600688E
:101F2000C5682846FFF751FF0146A81C02F0E5FCF2
:101F30006F7820467F1CE16BFFF751FE06464FF09D
:101F400001080FE020222946606B02F0E2FC2168C4
:101F50007F1E81F803800DD0002120462035FFF739
:101F600088FE06463EB9216B2068FFF76CFB060031
:101F7000E8D000E01EB1012E01D002204CE4304632
:101F80004AE42DE9F0470426FF25894604462F46FA
:101F9000D0F800805FE04046FFF755FB06005ED1B9
:101FA000616B0878A0B198F80020042A12D0CA7A90
:101FB000E52802F03F02A27108D02E2806D022F0B8
:101FC0002003082B1CD000234B451BD0FF2532E0FB
:101FD000042644E0B9F1000F02D0832841D02AE062
:101FE000852828D1A06AE0632046FFF726FF060077
:101FF00035D1D8F80C00007900F03F00A07130E036
:102000000123E1E70F2A01D00DBB1BE0420605D5F5
:102010004F7B20F04000A26A0546E263A84208D147
:10202000487BB84205D1206C02F051FD08B16D1E0D
:1020300000E0FF25EDB200212046FFF71AFE060062
:1020400009D00CE0084602F0BAFDB84209D04FF0C2
:10205000FF30E06305E0216B00299CD10EB1002028
:102060002063304652E42DE9F05F04460021D0F8A9
:102070000090FFF7B4FD00284BD199F80000042828
:102080000CD0FF254FF0FF382F46C4F83C8048465F
:10209000216BFFF7D8FA06004CD13CE0206CFFF72B
:1020A000AEFE82462DE0D9F80C00243002F015FC7B
:1020B000504526D1D9F80C0040254FF0000890F883
:1020C000236016E0E80600D1AD1CD9F80C002844C6
:1020D00002F003FCFFF78FF9216C074631F8180076
:1020E000FFF789F9874207D1761EF6B208F1010899
:1020F000AD1C002EE6D100E01EB9216C31F81800AD
:1021000030B100212046FFF73CFF5FEA000BCAD048
:102110005846BDE8F09F616B087850B1CA7AE5284F
:1021200002F03F02A27130D0130704D50F2A2CD140
:1021300005E0042633E00F2A01D0C5B11CE0226C73
:1021400032B3430605D54F7B20F04000A36A054615
:10215000E363A84208D1487BB84205D1104602F09B
:1021600076FC08B16D1E00E0FF25EDB210E00846D8
:1021700002F025FDB84212D0A16BC87AC00704D185
:102180000B22606B02F0D4FB48B1FF25C4F83C8001
:1021900000212046FFF76DFD06003FF478AF304682
:1021A000B7E72DE9F04F876B0446D0F80090D0F8E0
:1021B0004080F87A95B010F0A00F03D0062015B03B
:1021C000BDE8F08F002500E06D1C38F815000028F0
:1021D000FAD199F80000042817D00C22394612A829
:1021E00002F097FB9DF85300C0076AD00020F872F8
:1021F000012620643346424612A9384602F09CFC70
:102200002046FFF730FFE8BB4FE00F200E35B5FB4F
:10221000F0F5AD1C29462046FFF7ACFD0028CED1D5
:1022200069422022A06A02EB41110844E063E07990
:10223000410733D500F00300E071B9F80A00D4E992
:10224000043142029A1841F10001C4E904212046F8
:10225000FFF798FB0028B2D121466846FFF741FE00
:102260000028ACD1D4E90423D9F80C003830FFF7AA
:102270009CF9D4E90423D9F80C002830FFF795F92C
:10228000E07900E014E040F00101D9F80C0080F89A
:1022900021106846FFF740FE002890D14146D9F84A
:1022A0000C0002F0DEFC002089E7761C642EA1D32E
:1022B000642E10D0042882D19DF85300F872C4F81F
:1022C00040809DF85300800707D50D200C35B5FBE5
:1022D000F0F6761C02E0072071E701263146204621
:1022E000FFF748FD050075D1761E5FEA060B58D052
:1022F000A16ACBF1000001EB40112046FFF76FFC13
:10230000050067D1A06B02F05AFC01904846216B92
:10231000FFF799F905005DD1206C0090666B01987C
:102320000BF0FF0A70730F20F0720020307301462B
:1023300006F11A0002F0E1FAAAF1010000EB8001B7
:1023400001EBC008002701E0854204D0009830F876
:10235000185008F10108F9482946C05D304402F0E0
:10236000CCFA0DB94FF6FF757F1C0D2F4FF6FF709D
:10237000EAD3854203D0009830F8180008B94AF033
:10238000400A86F800A0012089F8030000212046B9
:10239000FFF76FFC05001DD1ABF101005FEA000BF8
:1023A000B4D14846216BFFF74EF9050012D1202227
:1023B0000021606B02F0B6FAD4E90D010B2202F0A5
:1023C000A8FAA06B616BC07A00F0180008730120B6
:1023D00089F803002846F2E62DE9F041C16B044676
:1023E000866A0568481C02D02046FFF7F8FB0028E3
:1023F0001AD1E5274FF001082846216BFFF723F992
:1024000078B929780429616B0FD00F7085F80380A3
:10241000A16AB14208D200212046FFF72AFC002819
:10242000EAD0042800D102201EE40A7802F07F02DC
:102430000A70EBE72DE9F0474FF00009064681F8F6
:102440001A90006B0C46002875D03068017804297A
:1024500005D0F06B401C20D00025376C16E0C0681A
:102460002146BDE8F04702F0B7BB0021FEF78EFF22
:1024700038B1FF2803D9010A62196D1C9176FF2D2E
:1024800001D3002506E061196D1C887637F8020B30
:102490000028EAD1611981F81A900021A37E0A462A
:1024A0004FF02E0C706B805C521C202822D0052827
:1024B00000D1E520092A07D113B9651885F81AC09B
:1024C0006518491C85F80DC0651868738BB9A0F1B3
:1024D0004107192F0CD8776B092A97F80C8001D384
:1024E000102700E0082718EA070F01D02030C0B2FB
:1024F000A876491C0B2AD5D333B9621882F81A90F2
:10250000706B007B00B9002160184D4680F80D907B
:10251000706BC07A2073706B1C3002F0E3F9C4E971
:102520000005706B183002F0D8F92081706B1630FE
:1025300002F0D3F9608103E42DE9F35F0E6800989F
:1025400000248846D0F840B02546705D6D1C2028D8
:1025500023D32F2821D05C281FD0FF2C46D2A0F1F6
:1025600081017D290BD8715D6D1C01EB0020A1F16B
:10257000400280B23F2A02D380397F2936D201211E
:10258000FEF704FF070031D0802F12D201466CA065
:1025900002F0DAF950BB0CE06D1C715D2F29FBD005
:1025A0005C29F9D07219C8F80020202805D204252A
:1025B0000EE02BF81470641CC7E7002508E00BEB55
:1025C000440030F8020C202801D02E2802D1641ECD
:1025D000002CF4D100212BF814103CB100980B22F0
:1025E0002021806B02F09EF9002703E00620BDE861
:1025F000FC9F7F1C3BF817002028FAD02E28F8D02B
:102600001FB145F0030500E0641E2CB10BEB440044
:1026100030F8020C2E28F7D14FF00008C1464FF0D9
:10262000080A3BF817607F1C06B3202E03D02E2E1D
:1026300004D1A74202D045F00305F2E7D04501D20C
:10264000A74219D1BAF10B0F0ED0A74201D045F025
:1026500003050BD84FEA896027464FF008084FF072
:102660000B0A4FEA1069DCE745F003050098806B20
:102670000178E5293DD03EE0802E08D33046FEF7B4
:10268000BAFE0021FEF782FE064645F00205FF2E47
:102690000FD9AAF10100804503D345F00305D046C8
:1026A000BFE70098310A826B02F8081008F10108B0
:1026B00018E026B1314625A002F046F918B15F2690
:1026C00045F003050EE0A6F14100192802D849F0B3
:1026D000020907E0A6F16100192803D8203E49F05D
:1026E0000109B6B20098816B01F8086008F1010891
:1026F00097E705210170BAF1080F03D14FEA89600D
:102700004FEA1069C9F38100032803D06FEA090179
:10271000890701D145F00205A90709D409F0030191
:10272000012901D145F01005012801D145F0080526
:102730000098806BC572002059E70000640503080B
:10274000222A3A3C3E3F7C7F000000002B2C3B3D80
:102750005B5D000073B504460568019801E0401C0C
:10276000019001782F29FAD05C29F8D00021A160CE
:1027700001980078202807D2A16B8020C872002120
:102780002046FFF72CFA7CBD01A92046FFF7D4FEB6
:102790000028F8D12046FFF766FCA16BC97A28B162
:1027A0000428F0D14907EED405207CBD4907FCD4AC
:1027B000A079C006F8D52878042809D0208DC0F368
:1027C000080041192846343102F01BF9A060DBE70C
:1027D000A168E1612069E17920F0FF0008432062EF
:1027E000E16B6162E868343002F07CF8A060E86870
:1027F00090F8210000F00201E171E8683830FEF73E
:10280000A9FEC4E90401BFE710B503464FF0FF304D
:102810001C68002C13D0214600E0491C0A78202AAD
:102820000ED33A2AF9D114F8012B303A0A2A06D2EB
:102830008C4204D1022A02D2491C1046196010BDF4
:10284000002010BD70B504460020E070401E2063DB
:102850002046FEF7F8FE08B1042070BD04F23220D5
:1028600002F03BF8A0F52A41553901D0032070BD94
:1028700004F16A0002F036F8F74DB5EB002F06D0F0
:1028800004F1860002F02EF8B5EB002F01D10020F4
:1028900070BD0822F1A104F1370002F049F808B137
:1028A000022070BD012070BD2DE9FF5F002790461A
:1028B0000E460F60FFF7A8FF050002D50B2004B0FD
:1028C00027E4E94850F825409CB13460207828F08E
:1028D000010620B16078FEF7A3FDC1070BD0277079
:1028E000E8B2B8466070FEF79DFDC10708D003202E
:1028F000E5E70C20E3E70EB1400704D40020DEE753
:102900001EB1400701D50A20D9E7002529462046F7
:10291000FFF798FF022820D16E4604EB051090F8CF
:10292000F61100F5F97019B1083001F0DBFF00E095
:10293000002046F825006D1C042DEED3002756F824
:10294000275025B129462046FFF77CFF00E00320F1
:10295000022802D37F1C042FF1D3042879D0022847
:1029600079D24FF0FF3A4FF4007601280CD004F1F1
:102970003F0001F0B2FFB0426DD104F14A0001F016
:10298000ACFF002868D083E00B2002E0401C402808
:1029900006D2211891F834100029F7D040285AD3D4
:1029A00004F19C0001F099FFB0F5807F53D194F8B9
:1029B000A000012707FA00F0B34658454BD104F1B7
:1029C0007C00FEF7C7FDC14610EB050841EB090688
:1029D000012E40D204F1880001F084FFE06194F8F8
:1029E000A200A070012836D194F8A10087403804D5
:1029F000000C60812FD004F1900001F073FF0746B6
:102A0000801CA061B0F1004F25D204F18C0025623A
:102A100001F068FF2844E06204F1840001F062FFE5
:102A2000284460626189E06A07FB0101B8EB01019B
:102A300076EB09060FD304F1940001F053FF014631
:102A4000A062204601F088FF01462046FEF7FBFD0C
:102A500018B1012033E767E016E000255E466019F3
:102A600090F83410812904D1483001F03BFF02284E
:102A700002D02035B542F2D3B54263D0C4F814A0D9
:102A80000426C4F810A0A7E004F1580001F02AFFC2
:102A9000E06194F84470A770012F01D0022F51D14A
:102AA000474394F841006081F0B3411E084249D188
:102AB00004F1450001F011FF2081000742D104F12B
:102AC000470001F00AFF060004D104F1540001F0B0
:102AD00009FF064604F1420001F0FFFE010031D07B
:102AE0002389C81900EB131296422BD3B01A6689BA
:102AF000B0FBF6F0C0B1012640F6F67C604500D38D
:102B000002264FF6F67C604500D30326801C2A443B
:102B1000E2622944A061C4E90851032E14D01BB11C
:102B20003944A162022E00E00CE01ED000F0010149
:102B300000EB400001EB5000E16900F2FF10B1EB47
:102B4000502F14D20D20BAE604F15E0001F0C5FE4C
:102B50000028F7D120890028F4D104F1600001F0A9
:102B6000C1FEA062A0698000E6E74000E4E7C4F887
:102B700014A08020C4F810A02071032E2CD104F1E1
:102B8000640001F0AAFE012826D1691C2046FEF748
:102B90005AFD08BB84F8048004F2322001F09DFE47
:102BA000A0F52A41553917D104F1340001F09AFEFD
:102BB0002E49884210D104F5067001F093FE2C498D
:102BC000884209D104F5077001F08CFE606104F5BC
:102BD000087001F087FE206123492670091F0888CC
:102BE000401C0880E08089E670B50D4604000CD0DA
:102BF000206850B1017841B1C188A288914204D1C6
:102C00004078FEF70DFCC00703D0002028600920A3
:102C100070BD20682860002070BD17B581B01446D3
:102C2000029800906846FFF7EFFD002802DA0B20BB
:102C300004B010BD0C4B002253F8201001B10A70F3
:102C40000199002900D00A7043F8201001D0012C0E
:102C500010D00020ECE700000046415445584641A2
:102C600054202020000000008C01002052526141BD
:102C700072724161002201A902A8FFF715FED7E791
:102C80002DE9F74F98B004000DD04FF0000802F086
:102C90001F06324601A919A8C4F80080FFF704FEF8
:102CA000050004D006E109201BB0BDE8F08F0198B3
:102CB00002904FF48C60FEF741FC07000DD014A881
:102CC00002991090129707F50070C86002A8199930
:102CD000FFF740FD050002D006E01120E4E7109860
:102CE000C07A000600D5062516F01C0F7ED04DB127
:102CF000042D03D102A8FFF754FA054646F0080652
:102D00004DB1D4E09DF80E0010F0110F6FD1700797
:102D100001D50825CBE030076AD5FEF70DFC8146CA
:102D200001984FF0200A4FF0010B017804292AD0B6
:102D30000F9849460E3001F0E4FD0F9849461630D1
:102D400001F0DFFD0F9981F80BA00F99019801F0B8
:102D500058FE814600220F99019801F065FE0F98F8
:102D600000211C3001F0CDFD0198B9F1000180F87F
:102D700003B078D0D0F830A0002202A8FEF719FEE8
:102D8000050055D093E020600198C068343001F010
:102D9000A9FDA0600198C0683830FEF7DBFBC4E9EC
:102DA00004010198C16891F8211001F00201E1715C
:102DB000C0684946083001F0A4FD01984546C16845
:102DC00081F81480C06849460C3001F09AFD0198E2
:102DD000C1684D75C268002182F804A0C068343013
:102DE00001F08FFD01980022C06802E02BE036E080
:102DF0003BE013463830FEF7D8FB0198002213461B
:102E0000C0682830FEF7D1FB019902A8C96881F893
:102E100021B0FFF781F8050049D1A168D1B10022A6
:102E20002046FEF7C6FD0546A0680199401E07E052
:102E300051460198FEF707FC05460199A9F10100EA
:102E4000086175B133E095BB9DF80E00C10602D54F
:102E500004252CE007E0B10703D5C00701D0072502
:102E600025E0300701D546F020060198016B21646A
:102E70000F996164017804291ED00F9901F0C1FDFA
:102E8000A0600F981C3001F02DFDC4E90408C4F8BF
:102E9000488084F829800021C4F83C80C4E90C11E2
:102EA00084F82860019820600198C088A080384686
:102EB000FEF748FB2846F7E6C068343001F012FD03
:102EC000A0600198C0683830FEF744FBC4E90401F3
:102ED0000198C06890F8210000F00200E0710498A9
:102EE000E06106989DF80F1020F0FF000843206273
:102EF00011986062CBE72DE9FC5F894600259A4670
:102F00001646044669461D60FFF76EFE00281AD17A
:102F100094F82900002816D194F82800C00711D091
:102F2000D4E90C02D4E90431181A04F14C0361EB22
:102F300002010193831B4FF0010B71F1000100D2DC
:102F400006468EE00720BDE8FC9F208EC0056CD1B0
:102F5000D4E90C230098550A45EAC3554089401E20
:102F6000054013D152EA030005D0A06C28B12046D9
:102F7000FEF71CFE05E0A06803E02046A16BFEF70B
:102F8000BAFB022819D3411C49D0A063A16B009859
:102F900001F0E2FC88B100EB0508770A23D0009825
:102FA000EA1941898A4200D94F1B40783B46424684
:102FB0004946FEF745FA90BB03E0022084F8290059
:102FC000C1E794F8280040060BD5E16BA1EB08009F
:102FD000B84206D209EB40204FF40072019901F08B
:102FE00098FC7D022FE0E26B42451CD094F828004B
:102FF00040060CD50098012301994078FEF749FA64
:1030000068B994F8280020F0400084F8280000985F
:103010000123424640780199FEF712FA18B184F86C
:1030200029B001208FE7C4F83C80208EC0F308004F
:10303000C0F50075B54200D9354601192A46484603
:103040004C3101F066FCD4E90C20521940F100002B
:10305000C4E90C20DAF80000A9444119761BCAF82B
:103060000010002E7FF471AF00206CE72DE9FC5FAB
:1030700089464FF0000B9A46164604466946C3F847
:1030800000B0FFF7B1FD002808D194F8290000280E
:1030900004D194F82800800701D4072053E7009852
:1030A000017804F14C000190042907D1D4E90C10F7
:1030B0008A1940EB0B03511A834102D3206B81190B
:1030C00001D3206BC643B0E0208EC0057FD1D4E988
:1030D0000C230098550A45EAC3554089401E054017
:1030E0001AD152EA030005D0A06C38B12046FEF791
:1030F0005DFD07E0A06838B9002100E0A16B204623
:10310000FEF7CEFC00287DD001282ED0411C57D0E0
:10311000A063A16801B9A06094F8280040060DD50D
:103120000098E26B012340780199FEF7B2F9A0BB49
:1031300094F8280020F0400084F82800A16B009843
:1031400001F00AFC88B100EB0508770A26D0009947
:10315000EA194889824200D9471B48783B464246D3
:103160004946FEF796F9C0B903E0022084F8290029
:10317000E9E6E16BA1EB0800B8420CD209EB402173
:103180004FF40072019801F0C4FB94F8280020F07D
:10319000400084F828007D022DE011E0E16B4145FC
:1031A00013D0D4E90413D4E90C20511A98410CD25D
:1031B00000980123424640780199FEF741F920B179
:1031C000012084F82900BEE601E0C4F83C80208E8E
:1031D000C0F30800C0F50075B54200D9354620445B
:1031E0002A4649464C3001F094FB94F8280040F000
:1031F000400084F82800D4E90C134A19A94443EB91
:103200000B0300E014E0C4E90C23D4E904108F1A86
:1032100070EB030701D211461846C4E90410DAF82E
:1032200000004119761BCAF80010002E7FF44CAF45
:1032300014F8280F40F020002070002083E6F0B53D
:1032400093B0044612A9FFF7CFFC050023D194F8F0
:10325000280081061FD5400611D51298E26B012384
:10326000407804F14C01FEF714F910B1012013B0BD
:10327000F0BD94F8280020F0400084F82800FEF704
:103280005BF9064612980178042905D0216CFEF7F7
:10329000DAF9050055D079E02046FEF773FB05000A
:1032A00074D14FF41870FEF749F9070008D012984E
:1032B0002146C7606846FEF714FE050002D03CE0D8
:1032C0001120D4E71298C1680A7942F020020A71ED
:1032D000E179C26841F0010182F82110C068A1685B
:1032E000343001F00EFBD4E904231298C068383062
:1032F000FEF75BF9D4E904231298C0682830FEF782
:1033000054F912983146C0680C3001F0FAFA12985C
:103310000021C2685175C068103001F0F2FA6846A9
:10332000FEF7FAFD050008D11298FEF7A5F905464B
:1033300014F8280F20F0200020703846FEF702F91C
:1033400024E0656C2946E87A40F02000E872A26823
:10335000206801F069FB05F11C00216901F0D1FA38
:10336000314605F1160001F0CCFA002105F11200FA
:1033700001F0C3FA12980121C170FEF77DF90546EC
:1033800094F8280020F0200084F8280028466EE7F2
:1033900038B50446FFF753FF002807D16946204699
:1033A000FFF722FC002801D10021216038BD2DE962
:1033B000F04F87B017469946044602A9FFF714FC60
:1033C0005FEA000A6FD194F82900B0F1000AF9D140
:1033D000D4F8488004F14C004FF0010B0190B8F193
:1033E000000F76D0F94371EA090135D0D4E9041011
:1033F000CB1B70EB090201D20F468146C4E90C7960
:1034000057EA09004FD07F1E49F1FF331D463A4667
:103410002046FEF7CBFB0146A063029801F09CFA20
:1034200000287DD002997A0A42EAC5524B895B1E78
:103430001A401518208EC005E4D0E26BAA42E1D0F4
:1034400094F82800400638D5487801230199FEF702
:1034500020F800287ED12AE058F8049BA1680226B3
:10346000D1B10025B61C00910F4620466D1CFEF719
:1034700042F90146012853D9481C6BD0781C81427F
:10348000F2D04E4504D848F8045B009848F8040B85
:10349000029880698842E4D8A06C4E45066003D843
:1034A0000020C8F80000DFE04FF0110ADCE094F8DB
:1034B000280020F0400084F82800029801232A46C2
:1034C00040780199FDF7BCFF002843D1E563CBE0CC
:1034D000FFE7D4E90410CB1B70EB090205D294F886
:1034E0002820920701D40F468146D4E90C01CDE98A
:1034F000040100200090C4E90C0057EA090060D0E4
:10350000029840894FEA4028DDE90401084326D0AB
:10351000781E49F1FF314246002313F0CCFA00E057
:103520007AE005460E46DDE90401401E41F1FF3117
:1035300042460023049013F0BEFA281A8E410ED39F
:10354000A8F10101CA43049800211040C4E90C010C
:103550003F1A00E075E069EB0109A16B0CE0A1687E
:1035600049B900212046FEF79BFA0146012854D0B4
:10357000481C66D0A160A16319B30026B8EB070010
:10358000354676EB09000AD294F8280080072046D9
:103590002AD5FEF785FA010029D14746B146D4E97C
:1035A0000C32DB1942EB0902C4E90C32F80508D0F1
:1035B000029801F0D1F978B3790A41EAC951084477
:1035C0000090208EC00542D0E26B009882423ED02F
:1035D00094F8280040062CD50298012301994078E0
:1035E000FDF757FF68BB1EE0FEF785F80146481C53
:1035F00027D0012911D90298806988420DD9A16389
:10360000D4E90C3013EB08026841C4E90C20B7EB95
:10361000080769EB0509B1E7FFE7022084F82900F4
:1036200007B0BDE8F08F94F8280020F0400084F83F
:1036300028000298DDE9002140780123FDF700FF12
:1036400018B184F829B00120EAE70098E063D4E9D2
:103650000C01D4E90423121A8B4105D2E4E90401D8
:10366000207E40F0200020765046D9E773B584B024
:10367000040007D00022694605A8FFF715F90500E8
:1036800003D055E0092006B070BD00994FF48C605E
:103690002160FDF753FF06000DD001A92664A16348
:1036A000216806F50070C86020460599FFF752F8BA
:1036B000050002D036E01120E5E7A06BC07A0006D5
:1036C00028D4A079C00637D500980178042904D001
:1036D000616B01F096F9A0601CE0A268E2612169CB
:1036E000E27921F0FF0111432162E26B6262C0685E
:1036F000343001F0F7F8A0600098C0683830FDF76A
:1037000029FFC4E904010098C06890F8210000F086
:103710000201E1710098C188A18020460021FEF7D6
:103720005EFA05463046FDF70DFF042D06D00DB1BB
:10373000002020602846A6E70525F3E70525F7E7E2
:1037400038B504466946FFF74FFA002801D1002139
:10375000216038BD2DE9FF410F46064603A9FFF75A
:1037600043FA04002FD1AFB14FF48C60FDF7E6FEB1
:10377000050015D0C6F838D03564316805F50070FD
:10378000C86000213046FEF7FCFB044604280BD03D
:1037900054B115E000213046FEF721FA044612E04C
:1037A000112004B0BDE8F08139463046FEF742FEF4
:1037B00000213046FEF75DFA0446042800D10024BB
:1037C0002846FDF7BFFE2046EBE773B596B00E46E0
:1037D0000022694616A8FFF767F8040024D14FF4C9
:1037E0008C60FDF7ABFE05000DD012A800990E907D
:1037F000109505F50070C86068461699FEF7AAFF97
:10380000040003D00DE0112018B070BD0E98C07AEE
:10381000000601D5062404E01EB131466846FEF7D5
:1038200009FE2846FDF78EFE2046EDE72DE9F74715
:103830008DB014468A46002269460DA8FFF734F879
:103840005FEA00097AD1009820600098D0E9051657
:10385000B21E914202D8CAF800106FE0017800242D
:10386000012904D004291AD0D0F824803BE0022595
:103870000290294602A8FDF73EFF411C03D0012813
:1038800003D028B105E0012000E0022081464DE090
:10389000641C00986D1C80698542EAD346E00025CF
:1038A000B61EC76A00E045B939467F1C0098FDF78F
:1038B000CAFE5FEA000939D1009A0820511991F82F
:1038C000341007E0CB0700D1641C4908401EA6F164
:1038D000010601D0002EF5D16D1CC5F30805002EA0
:1038E000E1D123E065B9414608F101080098FDF7F0
:1038F000AAFE5FEA000919D1009F4FF40075343722
:10390000009800780228384604D000F0EBFF000150
:1039100007D007E000F0E1FF00B9641CAD1EBF1C3A
:1039200002E0641C2D1F3F1D761EDBD1CAF800404B
:1039300000984461017941F00101017110B04846DD
:10394000BDE8F08738B504466946FFF74DF9050034
:103950004ED194F82950EDBB94F82800800701D48B
:10396000072038BDD4E90C01D4E90423821A71EB95
:1039700003023DD208430AD02046A16BFDF7BBFEEF
:103980000146401C0CD001290CD06DB115E000227D
:103990002046A168FEF70DF805460020A0600CE067
:1039A00001250AE0022508E000988069884204D9D0
:1039B0002046A26BFDF7FDFF0546D4E90C01C4E9E2
:1039C000040194F8280040F0200084F828006DB924
:1039D000400600E00CE00BD50098E26B0123407834
:1039E00004F14C01FDF755FD20B1012584F8295063
:1039F000284638BD14F8280F20F040002070F7E763
:103A000071B5B3B002222EA933A8FEF74DFF040012
:103A10002E98009077D14FF48C60FDF78FFD050054
:103A20000DD02FA800990E90109505F50070C86074
:103A300068463399FEF78EFE040003D060E0112043
:103A400034B070BD0E98C07A000601D5062457E048
:103A50009DF80600C00701D0072451E02E9824905D
:103A6000017804290ED00D9900F0CBFF06469DF891
:103A70000600C00633D52E981496129000780428BC
:103A800016D01DE0C068343000F02CFF06462690AA
:103A90002E98C0683830FDF75DFDCDE928012E98DD
:103AA000C06890F8210000F002008DF89700DEE772
:103AB000DDE92801CDE916019DF897008DF84F004A
:103AC000002112A8FEF78BF8040019D1002112A8DA
:103AD000FEF757FA0400BFD0042C00D084B9684622
:103AE000FEF77AFC04000BD136B10022314624A83F
:103AF000FDF75FFF040003D12E98FDF7BDFD0446DE
:103B00002846FDF71FFD20469AE72DE9F14F9AB0B0
:103B1000022201A91AA8FEF7C7FE0400019804902A
:103B20007ED14FF48C60FDF709FD5FEA000910D0EB
:103B300016A804991290CDF8509009F50070C8604D
:103B400004A81A99FEF706FE040005D0042C05D03F
:103B500087E011201BB064E5082482E0002104A85E
:103B6000FDF79EFF5FEA000801984FF0000214463F
:103B700041894FEA4121CDE9081203D0B8F1010F84
:103B800002D002E0072400E00224B8F1FF3F01D098
:103B900014B104E0012402E0FDF72CFD0446FDF71A
:103BA000CBFC0090ECBB4146019800F0D5FE019E95
:103BB000074634364FF400720021304600F0B2FE62
:103BC00001984FF0100A0078042827D00B222021FA
:103BD000304600F0A7FE2E25357086F80BA006F1C2
:103BE0001600009900F08DFE42463146019800F023
:103BF0001BFF06F1200020223146044600F089FE1A
:103C000086F821500198069A0178032903D1816A28
:103C1000914200D10022214600F006FF019801E008
:103C200022E019E045894FF0010B85B10198076347
:103C300080F803B07F1CFDF7DDFC04000CD14FF4CD
:103C400000720021304600F06DFE6D1EEED104A81A
:103C5000FEF7A7FA040009D00022414604A8FDF7A8
:103C6000A8FE4846FDF76EFC204673E701980178F0
:103C7000042914D0119C009904F1160000F041FEB3
:103C800042462146019800F0CFFE84F80BA001992E
:103C900081F803B00198FDF7EFFC0446E1E7C06846
:103CA00000990C3000F02DFE01984146C068343078
:103CB00000F027FE01980899C068383000F021FE16
:103CC00001980899C068283000F01BFE0198032174
:103CD000C26882F82110C06880F804A004A8FEF72A
:103CE0001BF9D7E7F3B5B9B03AA8FEF78DFD02226C
:103CF000694639A8FEF7D8FD040072D100981490E7
:103D00004FF48C60FDF71AFC05000DD036A814990D
:103D10002290249505F50070C86014A83999FEF723
:103D200019FD040003D09FE011203BB0F0BD2298A4
:103D3000C07A10F0A00F01D0062495E00098017819
:103D4000042913D02199152226A80B3100F0E1FD9A
:103D5000482214A902A800F0DCFD02A83A99FEF757
:103D6000F9FC040015D0042C3CD038E0C168402296
:103D700026A800F0CEFD482214A902A800F0C9FD33
:103D800002A83A99FEF7E6FC040002D0042C02D007
:103D900025E0082468E002A8FEF703FA040063D1D6
:103DA0000098C068467890F82340243000F095FDD4
:103DB00007460098402226A9C06800F0AAFD009896
:103DC000C06846700098C16881F82340C0683946D1
:103DD000243000F092FD02A8FEF79EF804467CB362
:103DE00042E044E002A8FEF7DCF904003CD10F9C5D
:103DF00013220DF19A0104F10D0000F08AFD9DF8E7
:103E00009800012640F02000E0720098C670E17A28
:103E1000C90620D5049A169991421CD0214600F07B
:103E2000F0FD0146009800F097FD010009D00098D0
:103E3000FDF709FC0400009800F1540103D013E0E1
:103E400009E0022410E04A782E2A04D1049A00F0F6
:103E5000EBFD0098C67014A8FEF7BEFA040003D16B
:103E60000098FDF709FC04462846FDF76BFB204649
:103E70005BE72DE9F74793B091460D46002212A962
:103E800013A8FEF711FD060064D1EDB31298B046F9
:103E900000904146CDF808806846FDF7A0FE060078
:103EA00019D101216846FEF76CF8060013D112986B
:103EB0000078042813D0002002460D99095CA9540B
:103EC000401C521C0B2AF8D34046A8541AB1521E6B
:103ED000A95C2029F9D0042E23D0AEB13AE0002409
:103EE00027464FF0020A13E00D990AEB47000844F9
:103EF00000F0F3FC0021FDF749FA80B1FF2802D958
:103F0000010A2955641C00E00EE02855641C7F1C42
:103F10000D984078B842E7D805F80480DBE73F20E9
:103F2000F1E785F800800026B9F1000F12D0129851
:103F3000016AFDF788FB06000CD112990878032866
:103F40000DD0042809D027200844343000F0CAFCE2
:103F5000C9F80000304616B0F2E46420F4E74320CC
:103F6000F2E72DE9F1439AB0022218A91AA8FEF748
:103F70009BFC002875D1189A002400921A9800E042
:103F8000641C015D2029FBD211784FF000090DF16E
:103F90004808042930D100252E4628E01A99485DAA
:103FA0006D1CA0F181027D2A0ED8A5420BD2495D7D
:103FB000A1F140023E2A02D9403A7E2A03D841EAC2
:103FC00000206D1C00E000200121FDF7DFF9070053
:103FD0007ED00146F74800F0B7FC002878D1162EB5
:103FE00076D008EB0600394600F087FCB61CA542E7
:103FF000D4D3344650E0641EA4B3011911F8011C57
:104000002029F8D000258DF848902E461A99885D11
:10401000761CA0F181027D2A10D80A2D0DD2A6426D
:104020000BD2895DA1F140023E2A02D9403A7E2A94
:1040300003D841EA0020761C00E000200121FDF7B2
:10404000A5F9FDF7D8F90021FDF7A0F907004BD03D
:104050000146D84800F078FCD0BBFF2F03D90A20D6
:1040600002E042E018E00B20A8423DD9FF2F03D91F
:10407000390A08F805106D1C404608F805706D1CDB
:10408000A642C3D320210B2D02D241556D1CFAE765
:104090009DF84800E52827D000216846CDF8089013
:1040A000FDF79DFD002820D101216846FDF769FF3D
:1040B0000125E8B1042818D10020002C15D00121D9
:1040C0006846FDF757FE00280FD12022002100E0AE
:1040D0000AE00D9800F026FC18980078042822D0F9
:1040E0000D990820C87208E006201BB0BDE8F083D7
:1040F00018980078042804D06CB10B2212A90D98EE
:1041000006E00D996008224648700D9812A9801C9F
:1041100000F0FFFB02E00D99E52008701898C570CB
:10412000FDF7AAFAE1E70D9983200870E9E72DE988
:10413000F74F88B017460998012803D913200BB010
:10414000BDE8F08F08A8FEF75FFB002801DA0B201E
:10415000F5E7994951F820504DB100212970C0B2BE
:104160000190FDF75FF9C10703D00320E7E70C20BA
:10417000E5E7400701D50A20E1E703AA01210198FC
:10418000FDF7AFF900287CD10398802879D30999ED
:1041900009B1002100E03F218946A0EB0901781E0A
:1041A0000742039100D187B94FF4FA60B1FBF0F2F6
:1041B000804B0020113300E0401C33F81040944243
:1041C000FAD87C4A273232F81070B7F5007F00D356
:1041D0007F0A87B1802F00D98027B1FBF7F0012635
:1041E00040F6F672904200D302264FF6F6729042E5
:1041F00003D3032621E00127EFE7032E1DD0012E74
:1042000025D04000001D00F2FF104FEA50284FF06B
:10421000010A2020834609EB0A000490404400EB89
:104220000B04E219A2EB0900884247D802AA032135
:104230000198FDF756F9A8B90FE040F2072202EB0A
:1042400080004FEA50284FF0200A0020E2E700EB00
:104250004000401C4008C01CD5E7029810B1B0F5E2
:10426000004F01D9012002902118401E491E8143B0
:10427000081B0290032E13D080440398A0EB0A027F
:1042800000E0E5E0A2EB0802A2EB0B01B1FBF7F1C5
:104290000591022E09D0032E0CD0012E12D016E06B
:1042A0000499824408440490E7E740F6F67291428C
:1042B00004D30CE04FF6F670814201D20E203EE7A7
:1042C0000C200AE0B0F5803F06D2012005E0B0F5F1
:1042D000803F01D2042000E006200690099808B132
:1042E000F02038E005F134004FF400720021009016
:1042F00000F018FB05F5F97401206070A070002033
:10430000E07006982071FE206071039909EB0100AE
:1043100043F6C161B0FBF1F03F2141EA9001029008
:10432000A171E0713F2104F1080000F0EAFA04F104
:104330000C00039900F0E5FA4AF6552105F2322007
:1043400000F0DBFADDE9001001230022FDF7A1F8FF
:1043500000287DD1F82005F134044FF40075009059
:104360002A460021204600F0DDFA0B2213A1204648
:1043700000F0CFFA294604F10B0000F0BEFA677393
:104380001FFA8AF104F10E0000F0B7FA0120207440
:10439000032E19D0410204F1110000F0AEFA039986
:1043A000B1F5803F12D289B204F1130000F0A5FAF2
:1043B00010E00000710503088C010020EBFE904D19
:1043C00053444F53352E30000021E4E704F1200020
:1043D00000F097FA009860753F2104F1180000F092
:1043E0008CFAFF2104F11A0000F087FA494604F123
:1043F0001C0000F086FAFDF79FF8802501464FF07B
:10440000290A0290032E24D004F1270000F079FA43
:104410001FFA88F104F1160000F06FFA84F82450B6
:1044200084F826A01322FEA104F12B0000F071FAFB
:1044300004F5FF704AF65521069000F05EFA01235C
:104440004A4621460198FDF724F8002800D121E0D2
:1044500086E004F1430000F054FA414604F12400E0
:1044600000F04FFA022104F12C0000F04AFA012179
:1044700004F1300000F041FA062104F1320000F0AE
:104480003CFA84F8405084F842A01322E9A104F1D8
:104490004700CBE7032E06D1012309F1060221468E
:1044A0000198FCF7F6FF049D4FF0000A4FF40072EC
:1044B0000021204600F036FA00980290032E13D017
:1044C000012E0FD06FF0FF0101432046029100F052
:1044D00018FA2A466D1C012321460198FCF7D9FFE2
:1044E000F0BB11E0D849EFE760F0FF0120460291F0
:1044F00000F007FA4FF0FF31201D00F002FA6FF0D4
:10450000704104F10800E2E74FF4007200212046F8
:1045100000F008FA012009E02A466D1C012321461B
:104520000198FCF7B6FFD8B90298401C02904045AC
:10453000F2D30AF101005FEA000AB7D0032E00D0DF
:104540005F462A466D1C012321460198FCF7A1FF16
:1045500030B97F1EF5D1032E28D1BC49204600E09A
:104560002CE000F0CEF9BA4904F5F27000F0C9F978
:10457000059904F5F470491E00F0C3F9022104F511
:10458000F67000F0BEF94AF65521069800F0B5F92C
:10459000012309F1010221460198FCF77AFF01236A
:1045A00009F1070221460198FCF773FF002211462A
:1045B0000198FCF796FF00283FF4CAAD0120BEE544
:1045C0002DE9FC4100259046074604464E1E0FE0AB
:1045D00001AB012269464046FEF78DFC0198012897
:1045E00008D19DF800006D1C04F8010B0A2801D0C9
:1045F000B542EDDB0020207015B13846BDE8FC81E6
:104600000020FBE738B545680446002D16DB60192D
:104610006D1C01733D2D0DDB6B462A4604F10C0128
:104620002068FEF723FD0098A84201D1002501E093
:104630004FF0FF356560A068401CA06038BD00B534
:1046400095B00291002103910491014602A8FFF761
:10465000D9FF039800280DDB024601AB05A902989B
:10466000FEF704FD30B901990398884202D10498FD
:1046700015B000BD4FF0FF30FAE710B596B0044614
:104680000020CDE90210049003E002A8641CFFF7AB
:10469000B9FF21780029F8D1039800280DDB0246E4
:1046A00001AB05A90298FEF7E1FC30B90199039826
:1046B000884202D1049816B010BD4FF0FF30FAE7DF
:1046C0000FB42DE9F0479EB028AE02900020039071
:1046D0000DF154090490279810F8011B2790002928
:1046E00073D0252903D002A8FFF78CFFF3E700253C
:1046F00010F8011B2F462790302902D02D2902D017
:104700000FE0012500E0022510F8011B279008E0CA
:1047100007EB870001EB40072798303F10F8011B9B
:104720002790A1F130000928F2D96C2901D04C2939
:1047300005D1279845F0040510F8011B27900029A2
:1047400043D0A1F161000A46192801D8203AD2B21B
:104750004F2A40D006DC422A3BD0432A36D0442A96
:10476000C1D13AE0532A08D0552A36D0582ABAD1B6
:10477000102301CE442A32D036E056F8048B0024B0
:1047800000E0641C18F804000028FAD1A80704D53A
:104790000DE0202102A8FFF735FF2046641CB84237
:1047A000F7D304E008F1010802A8FFF72BFF98F8FF
:1047B00000100029F6D103E0202102A8FFF722FF14
:1047C0002046641CB84286D2F6E76FE016F8041B58
:1047D00089E70223CDE70823CBE70A23C9E70028AE
:1047E00002DA404245F008050024CC46B0FBF3F263
:1047F00003FB1202B0FBF3F0D2B2092A05D97829E3
:1048000030D04FF007084244D2B230320CF80420C6
:10481000641C08B1202CE9D328071ED52D2019E0EF
:104820004E4F204E414D452020202046415420200F
:10483000202020004E4F204E414D45202020204674
:10484000415433322020200000FFFF0052526141CA
:104850007272416109F80400641CA046E80704D0A4
:10486000302003E04FF02708CDE72020824603E008
:10487000514602A8FFF7C6FEA80704D4414608F136
:104880000108B942F4D34D46641E02A8295DFFF722
:10489000B9FE002CF8D103E0514602A8FFF7B2FEA2
:1048A000414608F10108B9428DD2F5E70398002886
:1048B00010DB024601AB05A90298FEF7D7FB48B909
:1048C00001990398884205D104981EB0BDE8F0070D
:1048D0005DF814FB4FF0FF30F7E74178007840EACD
:1048E00001207047C178827842EA0121427800783D
:1048F00042EA012140EA012070470170090A417033
:1049000070470170090A4170090A8170090AC17073
:104910007047002A05D011F8013B00F8013B521EF8
:10492000F9D17047C9B200F8011B521EFBD1704784
:1049300010B510F8013B11F8014B1B1B521E01D0A2
:10494000002BF6D0184610BD00E0401C02780AB1DA
:104950008A42FAD1D0B270478269891E921E8A4279
:1049600001D800207047C26A408901FB00207047CF
:104970002DE9F047064680698F1E801E9246B84298
:1049800000D800273C46B8460025F06A00EB1431F9
:104990003046FCF758FE18B14FF0FF30BDE8F08705
:1049A00004F0070201209040B269C4F3C801C0B20C
:1049B0004FF480534FF40079921E06EB010C641CF7
:1049C0009CF834C00CEA000C4006000E944202D35E
:1049D000002420461946BCF1000F05D0A046002552
:1049E000BC4207D10020D9E76D1C5545F8D108F12C
:1049F0000200D3E70028E0D10120491C4945DCD35F
:104A0000C3E770B506460D4601F11A00FFF765FFD2
:104A100004463078032805D105F11400FFF75DFF47
:104A200044EA0044204670BD70B50C460646154663
:104A300091B204F11A00FFF760FF3078032805D126
:104A4000290C04F11400BDE8704056E770BD2DE953
:104A5000F05F8146884601F11A00FFF73EFF88BBF0
:104A600098F80000012700F03F00401E00EB800195
:104A7000DFF868A201EBC00400254FF6FF7B1AF8AF
:104A8000051001EB0800FFF728FF06466FB1FF2C69
:104A900018D2FCF7B0FC074639F81400641CFCF788
:104AA000AAFC87420ED1374601E05E450AD16D1C53
:104AB0000D2DE4D398F80000400606D52FB139F843
:104AC000140010B10020BDE8F09F0120FBE72DE9A4
:104AD000F04780460F4601F11A00FFF7FEFE20BBAB
:104AE0003878012600F03F00401E00EB8001DFF81F
:104AF000EC9101EBC00400254FF6FF7A19F8050090
:104B00003844FFF7EAFE36B1FF2C0ED228F8140025
:104B10000646641C01E0504507D16D1C0D2DEDD3F8
:104B20003878400606D5FF2C01D3002036E7002157
:104B300028F81410012031E77CB516461C460546BE
:104B40000B22FFF7E6FE052C11D9654A0CE0002187
:104B5000B61C2346044663F35F044008E30300D514
:104B60005440491C1029F4D330880028EFD1072283
:104B70006B4604F00F003030392800D9C01D98541E
:104B8000521E2409F5D17E2000219854541E06E0BF
:104B900081387D2802D8A14206D0491C491C914287
:104BA00002D2685C2028F3D1082A02D2985C521CF9
:104BB00000E020206854491C0829F5D37CBD01463B
:104BC00000200B22430803EBC01011F8013B521EDA
:104BD0001844C0B2F6D170472DE9F04140270026B5
:104BE0000C460546B04617E0F80600D1BF1CE81990
:104BF000FFF773FE0021FCF7C9FB90B1FF2803D932
:104C0000010AA219761C9176FF2E0AD2A119761CF0
:104C1000887608F10108BF1C95F823104145E3D8B8
:104C200016B93F20A0760126A1190020887660736E
:104C300028792073C00602D50020014603E005F163
:104C40003800FCF787FCC4E9000105F10C00FFF710
:104C500044FE608105F10E00FFF73FFE2081BDE8B4
:104C6000F0812DE9F05F8946064640220021FFF7DA
:104C700059FE85203070C02086F820004846FDF798
:104C8000BEF8014606F12400FFF737FE4024002558
:104C90004FF001084746AA464FF0C10B06F804B092
:104CA000641C06F804A0641C27B139F815700FB114
:104CB0006D1CEDB230193946FFF71FFEA41CE0064B
:104CC000F2D108F1010000F0FF0839F815000028C2
:104CD000E4D186F8235086F80180F4E664050308E1
:104CE00021100100704770B5604D04464FF47A7191
:104CF0002878B1FBF0F05E490968B1FBF0F000F0F4
:104D000013F948B9102C07D200222146501E00F09A
:104D1000CAF800206C6070BD012070BD554810B508
:104D2000016841F400710160016841F48061016033
:104D3000052000F0ABF80F20FFF7D5FFFBF710FEC2
:104D4000002010BD70474C4A10B54FF0FF30106086
:104D500000211160121D10601160474A103A106066
:104D60001160121D10601160121D10601160FBF7C0
:104D7000F8FD002010BD3D48816802781144816033
:104D800070473A4880687047384840687047374AEB
:104D900010B50146137800208B4203D01170506883
:104DA000FFF7A1FF10BD31480078704770B5044689
:104DB000FFF7E7FF0546601C02D02C48007804444A
:104DC000FFF7DFFF401BA042FAD370BD4FF0E02099
:104DD000016921F00201016170474FF0E020016993
:104DE00041F002010161704724487047244800687F
:104DF000000C704722480068C0F30B007047204841
:104E0000416841F00101416070471D48416821F04F
:104E10000101416070471A48416841F00201416058
:104E200070471748416821F00201416070471448FB
:104E3000416841F00401416070471148416821F028
:104E40000401416070470F490120086070470D4917
:104E50000020086070470C48006870470A48001D31
:104E600000687047084808300068704794010020C7
:104E70006C010020003C024020380240000607017F
:104E8000002004E000042742107AFF1F964A00F039
:104E9000070110684FF6FF03184040EA01209349CC
:104EA000084310607047F0B48F4B1B68C3F30223B4
:104EB000C3F10704042C00D904241D1D072D01D2C1
:104EC000002300E0DB1E012606FA04F56D1E0D40EE
:104ED0009D409E40761E164045EA0601F0BC00F05B
:104EE000F3B800F01F02012191404009800000F159
:104EF000E020C0F80011704700F01F02012191402E
:104F00004009800000F1E020C0F880117047BFF335
:104F10004F8F75480168754A01F4E061121D114315
:104F20000160BFF34F8FFEE710B5401EB0F1807FE8
:104F300001D3012010BD4FF0E02460610F21601704
:104F400000F0C2F80020A06107202061002010BD01
:104F5000BFF35F8F64481830016821F4803101602D
:104F6000614900208831086070475F4940F00100C6
:104F7000883108605C481830016841F48031016074
:104F8000BFF34F8FBFF36F8F7047574A41788C3212
:104F900011600378111D0A1DE3B143680B60017BAA
:104FA000C37A090741EA0361837A41EAC341437B3B
:104FB00041EA8341837B41EA4341C37B41EA0341A8
:104FC000437A41EA0321037A007841EA430101432D
:104FD0001160704700200860106070474248006808
:104FE000C0F302207047F0B5002806DA00F00F0089
:104FF00000F1E02090F8140D03E000F1E02090F8BB
:105000000004040901F00700C0F10701042900D9D8
:105010000421051D072D01D2002000E0C01E01273C
:1050200024FA00F607FA01F56D1E2E4007FA00F586
:105030006D1E254016601D60F0BD00F01F020121AD
:1050400091404009800000F1E020C0F80012704754
:105050004109890001F1E021D1F8001200F01F029E
:1050600001209040014201D001207047002070478C
:1050700000F01F02012191404009800000F1E02072
:10508000C0F8801270474109890001F1E021D1F890
:10509000001300F01F0201209040014201D00120C6
:1050A0007047002070474FF0E0210428086903D0C2
:1050B00020F004000861704740F00400FAE77047F0
:1050C00010B5FFF7FCFF10BD0907090E002806DA2E
:1050D00000F00F0000F1E02080F8141D704700F18F
:1050E000E02080F8001470470CED00E00000FA05A5
:1050F0002DE9F84FDFF8D892002209F1040A0AF1ED
:10510000040B4FF00F080BF1040E01260B689640BC
:105110003340B34271D14C68022C01D0122C11D112
:10512000D40800EB84073D6A5407E40E08FA04FC37
:1051300025EA0C05D1F810C00CFA04FC4CEA050C69
:10514000C7F820C007685400032591F804C0A540A3
:105150000CF0030CAF430CFA04FC4CEA070CC0F84B
:1051600000C04F68012F05D0022F03D0112F01D0AE
:10517000122F11D18768D1F80CC0AF430CFA04FC90
:105180004CEA070CC0F808C04768B7430E79C6F36D
:10519000001696403E434660C668AE438D68A54003
:1051A0003543C5604C68E40065D58A4C256845F4F4
:1051B00080452560246822F0030504F480440094AF
:1051C000854C2E19D6F808789407250F08FA05F4AF
:1051D000A743824CA04201D1002424E0804CA0428D
:1051E00001D101241FE07F4CA04201D102241AE02A
:1051F0007D4CA04202D1032415E03CE07B4CA04250
:1052000001D104240FE07A4CA04201D105240AE028
:10521000784CA04201D1062405E0774CA04201D190
:10522000072400E00824AC403C43C6F80848D9F8FD
:1052300000404D464E689C43F60300D51C432C604D
:10524000DAF8004055464E689C43B60300D51C432F
:105250002C60DBF800405D464E689C43F60200D5AA
:105260001C432C60DEF8004075464E689C43B60235
:1052700000D51C432C60521C102AFFF446AFBDE839
:10528000F88F2DE9F04FDFF850A1894600224FF04A
:10529000010B4FF00F0C0BFA02F609EA0603B342BA
:1052A00064D122F003045444D4F8081895072F0F52
:1052B0000CFA07F505EA01084849884201D10021A6
:1052C00023E04749884201D101211EE04549884237
:1052D00001D1022119E04449884201D1032114E09F
:1052E0004249884201D104210FE04149884201D15D
:1052F00005210AE03F49884201D1062105E03E49E7
:10530000884201D1072100E00821B940414514D16C
:10531000D4F80818A943C4F808182D490C689C4310
:105320000C60091D0C689C430C60091D0C689C43B3
:105330000C60091D0C689C430C6003685400032139
:10534000A1408B430360D30800EB83031D6A54071D
:10535000E70E0CFA07F4A5431D6283688B43836054
:105360004368B3434360C3688B43C360521C102A35
:1053700091D3BDE8F08F0069084000D0012070474C
:105380000AB1816170470904FBE7426931EA020210
:1053900000D109048161704708B541F48032009260
:1053A000C261C1610099C161C1690091C069C00356
:1053B00001D5002008BD012008BD7047044910B583
:1053C00014310A68024202D00860FFF7F6FF10BDF0
:1053D000003C0140443802400030014000000240DF
:1053E0000004024000080240000C0240001002408D
:1053F0000014024000180240001C024000207047C8
:105400002DE9F84F040073D02078F84DC00748D03C
:10541000F64808300168C1F38101012908D000680D
:10542000C0F3810002280AD1281D0068400206D579
:105430002868800335D560680028E4D031E06068D2
:10544000B0F5803F10D0B0F5A02F286810D020F420
:1054500080302860286820F4802028606068A0B12F
:10546000FFF78FFC06460CE0286840F48030F4E734
:1054700040F480202860F7E7FFF783FC801B642856
:1054800072D828688003F7D50BE0FFF77AFC064650
:1054900004E0FFF776FC801B6428F1D828688003BD
:1054A000F7D42078DFF8489380074FF0000A3ED504
:1054B000CE480830016811F00C0F09D00068C0F325
:1054C000810002280BD1C948001D0068400206D4A3
:1054D0002868800715D5E068012809D111E0E06847
:1054E000B8B10120C9F80000FFF74BFC064605E003
:1054F00003E1FFF746FC801B0228C1D8286880071B
:10550000F7D52868216920F0F80040EAC10028603A
:105510000DE0C9F800A0FFF734FC064604E0FFF7F1
:1055200030FC801B02281FD828688007F7D4207819
:10553000000722D5AD4FAF496069743770B10120C3
:105540000860FFF71EFC064604E0FFF71AFC801B0C
:10555000022809D838688007F7D50EE0C1F800A006
:10556000FFF70FFC064605E081E0FFF70AFC801B11
:1055700002287CD838688007F7D42078400769D59E
:10558000DFF868B24FF000080BF1400BDBF80000C9
:10559000C0000CD4DBF8001041F08051CBF80010B3
:1055A000DBF800004FF0010800F080500090924FAF
:1055B0003868C0050FD4386840F480703860FFF751
:1055C000E0FB064604E0FFF7DCFB801B02284ED818
:1055D0003868C005F7D5854FA068703701280FD00F
:1055E0000528386810D020F001003860386820F0B5
:1055F00004003860A068B0B1FFF7C3FB06460EE0B8
:10560000386840F00100F4E740F004003860F7E744
:10561000FFF7B7FB811B41F28830814265D83868BB
:105620008007F5D50DE0FFF7ACFB064606E0FFF777
:10563000A8FB811B41F28830814256D83868800728
:10564000F5D4B8F1000F05D0DBF8001021F080513F
:10565000CBF80010A069C8B3644908310968C1F3E8
:105660008101022949D00228504607D000E03CE0E1
:10567000C9F86000FFF785FB044639E04F46C9F8DA
:105680006000FFF77EFB064604E0FFF77AFB801B15
:1056900002282AD828688001F7D4D4E907010843F2
:1056A000A16A564A490802EB0141626A41EA821145
:1056B000084394F82C1040EA01614C48001D016039
:1056C00001203866FFF75DFB044605E013E0FFF7B5
:1056D00058FB001B022808D828688001F7D50AE08B
:1056E000FFF74FFB001B022802D90320BDE8F88F0B
:1056F00028688001F4D40020F8E70120F6E73B4851
:1057000010B50830006810F00C013D4813D043106C
:1057100004290FD008290ED1344C241D216801F032
:105720003F022168490207D52068C0F38810A0FB1A
:10573000030106E0184610BD2168C1F38811A1FBE2
:105740000001002311F0B7F92168C1F30141491CA0
:105750004900B0FBF1F010BD2DE9F0470D46040003
:1057600074D0DFF8A090D9F80000EFB200F00F007D
:10577000A84207D289F80070D9F8000000F00F00A5
:10578000A84263D12068204E810712D5400703D577
:10579000306840F4E05030602078000703D530686E
:1057A00040F4604030603068A16820F0F0000843A9
:1057B00030602078C0073CD060680C49012812D0C6
:1057C000022823D0032821D00968890700293DDA5F
:1057D000316821F0030101433160FFF7D2FA8046BE
:1057E00041F2883A1EE009688903EFE70038024079
:1057F00000004742800E4742007000400000FFFF5B
:105800000024F400003C0240083802400968890185
:10581000DCE7FFF7B6FAA0EB0801514502D90320F7
:10582000BDE8F0873068616800F00C00B0EB810FD4
:10583000EFD1D9F80010484601F00F01A94207D96D
:105840000770006800F00F00A84201D00120E7E7D0
:105850002078400705D53068E16820F4E05008431F
:1058600030602078000706D53068216920F4604058
:1058700040EAC1003060FFF742FF3168764AC1F369
:105880000311515CC840754908600F20FFF72BFADF
:105890000020C5E7F0B5724E15460C46704B00214E
:1058A00002220327283E0028186887B019D040F04C
:1058B00004001860186800F00400059010020090C1
:1058C000CDE90121CDE9037169466648FFF710FC77
:1058D000306844EAC50120F078400843306007B0E2
:1058E000F0BD40F001001860186800F0010005905C
:1058F0004FF480700090CDE90121CDE90371694634
:105900005948FFF7F5FB30682C4320F0EC6020434A
:10591000E4E756490120C864704754490020C86430
:1059200070474E48006870474D494C482839006818
:1059300009684F4AC1F38221515CC8407047484909
:105940004648283900680968494AC1F34231515C28
:10595000C840704730B5424B0F21303B0160196899
:105960004A034FF0000102D54FF4A02204E01A6868
:10597000D20303D54FF48032426000E041601A68E0
:10598000D4074FF0010201D0C26000E0C1601C6882
:10599000C4F3C4040461324C403425686D0702D559
:1059A0000524846005E02468E40701D0826000E0FB
:1059B00081602B4C44342468E40701D0426100E04C
:1059C00041611968C90102D50221816100E082614B
:1059D00023492C390A6802F48002C2610A6802F085
:1059E0003F0202620A68C2F3881242620A6802F445
:1059F000403202F58032D20B82620968C1F3036142
:105A0000C16230BD0F220260154A283A136803F0C4
:105A100003034360136803F0F0038360136803F427
:105A2000E053C36012684FF4E05303EAD20202610C
:105A30001048006800F00F00086070477047084881
:105A400010B524380068000605D5FFF7F7FF0449B4
:105A500080202239087010BD0C0103086C01002061
:105A60003038024000080240000002400000474277
:105A70001C010308003C02402DE9F0410446006887
:105A80000169E26821F4405111430161A168206974
:105A9000E26901436069104301432068C26849F22A
:105AA0000C639A430A43C26020684169A26921F4E9
:105AB000407111434161E0696425B0F5004FFC4A33
:105AC000FC4920684FF032083FD0884201D0904214
:105AD0007CD1FFF734FF00EBC00101EB00106168DF
